:100000000C9446000C9450000C9450000C9450003A
:100010000C9450000C9450000C9450000C94500020
:100020000C9450000C9450000C9450000C94500010
:100030000C9450000C9450000C9450000C94500000
:100040000C9450000C9450000C9450000C945000F0
:100050000C9450000C9450000C9450000C945000E0
:100060000C9450000C9450000C9450000C945000D0
:100070000C9450000C9450000C94D1000C9450003F
:100080000C9450000C9450000C94500011241FBE8E
:10009000CFEFD0E1DEBFCDBF0E94BE000C94F700D1
:1000A0000C940000DA9A8FE59AEE0197F1F700C000
:1000B0000000DA988FE19EE40197F1F700C000009C
:1000C0000895CF93C82F807F8BBB0E945200C295AA
:1000D000C07FCBBB0E945200CF910895CF93C82F11
:1000E000807F81608BBB0E94520020E1C29FC001D3
:1000F000112481608BBB0E945200CF9108952FEF95
:1001000089EF90E0215080409040E1F700C000006E
:1001100085EF8ABB82E090E00E94610088E290E077
:100120000E94610081E090E00E9461008FE090E019
:100130000E94610086E090E00E94610080E890E00B
:100140000E9461000895EAE9F0E090819068908350
:100150001092980080939900808188618083EDE9F6
:10016000F0E080818660808378940895EBE9F0E088
:10017000908195FFFDCF80939C0008950E947F00A1
:1001800087E690E00E94A3008DE60E94B6002FEF64
:1001900083ED90E3215080409040E1F700C00000E3
:1001A000F3CF1F920F920FB60F9211242F933F930C
:1001B0004F935F936F937F938F939F93AF93BF936F
:1001C000EF93FF9380919C000E946E00FF91EF914E
:1001D000BF91AF919F918F917F916F915F914F915F
:1001E0003F912F910F900FBE0F901F901895F8948C
:0201F000FFCF3F
:00000001FF
