S0130000554152545F52585F4C43442E737265639A
S11300000C9446000C9450000C9450000C94500036
S11300100C9450000C9450000C9450000C9450001C
S11300200C9450000C9450000C9450000C9450000C
S11300300C9450000C9450000C9450000C945000FC
S11300400C9450000C9450000C9450000C945000EC
S11300500C9450000C9450000C9450000C945000DC
S11300600C9450000C9450000C9450000C945000CC
S11300700C9450000C9450000C9450000C945000BC
S11300800C9450000C9450000C94500011241FBE8A
S1130090CFEFD0E1DEBFCDBF0E94BC000C94C50001
S11300A00C9400001092980080939900EAE9F0E023
S11300B0808188618083EDE9F0E0808186608083BF
S11300C00895DA9A8FE59AEE0197F1F700C00000DF
S11300D0DA988FE19EE40197F1F700C000000895DB
S11300E0CF93C82F807F8BBB0E946100C295C07FD5
S11300F0CBBB0E946100CF910895CF93C82F807F1E
S113010081608BBB0E94610020E1C29FC001112469
S113011081608BBB0E946100CF910895EBE9F0E010
S113012080818823ECF780919C000E947D000895D3
S11301302FEF89EF90E0215080409040E1F700C01C
S1130140000085EF8ABB82E090E00E94700088E2A4
S113015090E00E94700081E090E00E9470008FE0C7
S113016090E00E94700086E090E00E94700080E8B9
S113017090E00E94700008950E94980087E690E045
S11101800E9452000E948E00FDCFF894FFCF23
S9030000FC
