:100000000C9446000C945B000C945B000C945B0019
:100010000C945B000C945B000C945B000C945B00F4
:100020000C945B000C945B000C945B000C945B00E4
:100030000C945B000C945B000C945B000C945B00D4
:100040000C945B000C945B000C945B000C945B00C4
:100050000C945B000C945B000C945B000C945B00B4
:100060000C945B000C945B000C945B000C945B00A4
:100070000C945B000C945B000C945B000C945B0094
:100080000C945B000C945B000C945B0011241FBE6D
:10009000CFEFD0E1DEBFCDBF11E0A0E0B1E0E2E7FD
:1000A000F1E002C005900D92A233B107D9F70E948A
:1000B00092000C94B7000C9400001092980080936A
:1000C0009900EAE9F0E0808188618083EDE9F0E061
:1000D0008081866080830895EBE9F0E0908195FF50
:1000E000FDCF80939C00EBE9F0E08081806280830B
:1000F0000895EBE9F0E080818823ECF780919C0083
:100100000E946C000895CF93DF93EC0188818823CF
:1001100031F021960E946C0089918111FBCFDF9113
:10012000CF910895CF93DF93CDB7DEB7E2970FB6A7
:10013000F894DEBF0FBECDBF8DE0E0E0F1E0DE0160
:10014000119601900D928A95E1F7FE013E9685E2A7
:10015000DF011D928A95E9F787E690E00E945D0035
:100160000E947900CE0101960E948300F9CFF89495
:02017000FFCFBF
:1001720041414141737472696E6777650000000006
:10018200000000000000000000000000000000006D
:10019200000000000000000000000000000000005D
:0201A20000005B
:00000001FF
