:100000000C9446000C9450000C9450000C9450003A
:100010000C9450000C9450000C9450000C94500020
:100020000C9450000C9450000C9450000C94500010
:100030000C9450000C9450000C9450000C94500000
:100040000C9450000C9450000C9450000C945000F0
:100050000C9450000C9450000C9450000C945000E0
:100060000C9450000C9450000C9450000C945000D0
:100070000C9450000C9450000C9450000C945000C0
:100080000C9450000C9450000C94500011241FBE8E
:10009000CFEFD0E1DEBFCDBF0E9478000C9482008C
:1000A0000C9400001092980080939900EAE9F0E027
:1000B000808188618083EDE9F0E0808186608083C3
:1000C0000895EBE9F0E0908195FFFDCF80939C00CF
:1000D000EBE9F0E08081806280830895EBE9F0E055
:1000E00080818823ECF780919C000E946100089534
:1000F00087E690E00E9452000E946E0081E40E9418
:080100006100FACFF894FFCF73
:00000001FF
