S00E00006C6564312E632E737265631F
S11300000C9446000C9450000C9450000C94500036
S11300100C9450000C9450000C9450000C9450001C
S11300200C9450000C9450000C9450000C9450000C
S11300300C9450000C9450000C9450000C945000FC
S11300400C9450000C9450000C9450000C945000EC
S11300500C9450000C9450000C9450000C945000DC
S11300600C9450000C9450000C9450000C945000CC
S11300700C9450000C9450000C9450000C945000BC
S11300800C9450000C9450000C94500011241FBE8A
S1130090CFEFD0E1DEBFCDBF0E94B7000C942701A3
S11300A00C940000DA9A8FE59AEE0197F1F700C0FC
S11300B00000DA988FE19EE40197F1F700C0000098
S11300C00895CF93C82F807F8BBB0E945200C295A6
S11300D0C07FCBBB0E945200CF910895CF93C82F0D
S11300E0807F81608BBB0E94520020E1C29FC001CF
S11300F0112481608BBB0E945200CF9108952FEF91
S113010089EF90E0215080409040E1F700C000006A
S113011085EF8ABB82E090E00E94610088E290E073
S11301200E94610081E090E00E9461008FE090E015
S11301300E94610086E090E00E94610080E890E007
S11301400E9461000895CF93DF93EC018881882396
S113015031F021960E946E0089918111FBCFDF91CD
S1130160CF9108950E94E7000E94A3000895CF93C1
S1130170DF93CDB7DEB727970FB6F894DEBF0FBE77
S1130180CDBF0E947F008FEF84BB4AE050E0BE01E8
S11301906F5F7F4F8AE090E00E94B2002AEA90E508
S11301A08FEF25BB3FEF49E658E1315040405040C6
S11301B0E1F700C0000095BB3FEF49E658E131503C
S11301C040405040E1F700C0000085BBEACF453213
S11301D0510520F4423010F00C94F200FB0110821F
S11301E0CB010895BB274A3031F4992322F4BDE2B0
S11301F0909581959F4F0C94FE00BB27FB015527DA
S1130200AA27880F991FAA1FA41710F0A41B83956F
S11302105051B9F7A05DAA3308F0A95DA1930097E6
S113022079F7B111B1931192CB010C941701DC0150
S1130230FC01672F71917723E1F7329704C07C9119
S11302406D9370836291AE17BF07C8F30895F89455
S1050250FFCFDA
S9030000FC
