S01B0000554152545F434841525F494E544552525550542E7372656324
S11300000C9446000C9450000C9450000C94500036
S11300100C9450000C9450000C9450000C9450001C
S11300200C9450000C9450000C9450000C9450000C
S11300300C9450000C9450000C9450000C945000FC
S11300400C9450000C9450000C9450000C945000EC
S11300500C9450000C9450000C9450000C945000DC
S11300600C9450000C9450000C9450000C945000CC
S11300700C9450000C9450000C9477000C94500095
S11300800C946D000C9450000C94500011241FBE6D
S1130090CFEFD0E1DEBFCDBF0E9465000C948B0092
S11300A00C940000EAE9F0E090819068908310924B
S11300B0980080939900808188658083EDE9F0E061
S11300C08081866080837894089587E690E00E941A
S11300D052008DE480939C00FFCF1F920F920FB6C5
S11300E00F9211240F900FBE0F901F9018951F921E
S11300F00F920FB60F9211248F93EF93FF93ECE9B5
S1130100F0E080818083FF91EF918F910F900FBE7B
S10D01100F901F901895F894FFCF8C
S9030000FC
