S00E000042555A5A45522E7372656334
S11300000C9446000C9450000C9450000C94500036
S11300100C9450000C9450000C9450000C9450001C
S11300200C9450000C9450000C9450000C9450000C
S11300300C9450000C9450000C9450000C945000FC
S11300400C9450000C9450000C9450000C945000EC
S11300500C9450000C9450000C9450000C945000DC
S11300600C9450000C9450000C9450000C945000CC
S11300700C9450000C9450000C9450000C945000BC
S11300800C9450000C9450000C94500011241FBE8A
S1130090CFEFD0E1DEBFCDBF0E9452000C945500DB
S11100A00C940000D39ADB9AFFCFF894FFCFA4
S9030000FC
