S00F00006C63645F322E302E73726563F3
S11300000C9446000C9450000C9450000C94500036
S11300100C9450000C9450000C9450000C9450001C
S11300200C9450000C9450000C9450000C9450000C
S11300300C9450000C9450000C9450000C945000FC
S11300400C9450000C9450000C9450000C945000EC
S11300500C9450000C9450000C9450000C945000DC
S11300600C9450000C9450000C9450000C945000CC
S11300700C9450000C9450000C9450000C945000BC
S11300800C9450000C9450000C94500011241FBE8A
S1130090CFEFD0E1DEBFCDBF0E94BF000C94C900FA
S11300A00C940000DA9A8FE59AEE0197F1F700C0FC
S11300B00000DA988FE19EE40197F1F700C0000098
S11300C00895CF93C82F8BB38F709C2F907F892B6B
S11300D08BBBD8980E9452008BB38F70C295C07F9F
S11300E0C82BCBBBD8980E945200CF910895CF93D0
S11300F0C82F8BB38F709C2F907F892B8BBBD89A82
S11301000E9452008BB38F70C295C07FC82BCBBBAB
S1130110D89A0E945200CF9108952FEF89EF90E072
S1130120215080409040E1F700C0000082E090E060
S11301300E94610088E290E00E94610083E390E005
S11301400E94610082E390E00E9461008EE090E0F2
S11301500E9461008CE090E00E94610081E090E0E8
S11301600E9461008FE090E00E94610086E090E0D0
S11301700E94610080E890E00E9461000895CFEF42
S1130180CABB0E948D00C4BB85E690E00E94770044
S1090190FBCFF894FFCF41
S9030000FC
