:100000000C9446000C945B000C945B000C945B0019
:100010000C945B000C945B000C945B000C945B00F4
:100020000C945B000C945B000C945B000C945B00E4
:100030000C945B000C945B000C94D0000C945B005F
:100040000C945B000C945B000C945B000C945B00C4
:100050000C945B000C945B000C945B000C945B00B4
:100060000C945B000C945B000C945B000C945B00A4
:100070000C945B000C945B000C945B000C945B0094
:100080000C945B000C945B000C945B0011241FBE6D
:10009000CFEFD0E1DEBFCDBF11E0A0E0B1E0EEEFE9
:1000A000F1E002C005900D92A430B107D9F70E948B
:1000B000C9000C94FD000C940000DA9A8FE59AEECA
:1000C0000197F1F700C00000DA988FE19EE40197F4
:1000D000F1F700C000000895CF93C82F807F8BBB3D
:1000E0000E945D00C295C07FCBBB0E945D00CF9196
:1000F0000895CF93C82F807F81608BBB0E945D00E5
:1001000020E1C29FC001112481608BBB0E945D0071
:10011000CF9108952FEF89EF90E0215080409040DB
:10012000E1F700C0000085EF8ABB82E090E00E940A
:100130006C0088E290E00E946C0081E090E00E94F8
:100140006C008FE090E00E946C0086E090E00E94DE
:100150006C0080E890E00E946C000895CF93DF93DC
:10016000EC018881882331F021960E9479008991E1
:100170008111FBCFDF91CF910895789487B7846088
:1001800087BF80E891EC9DBD8CBD8EB585608EBD2E
:1001900008958FEF84BB0E948A000E94BD00FFCFAC
:1001A0001F920F920FB60F9211242F933F934F93EC
:1001B0005F936F937F938F939F93AF93BF93EF93CF
:1001C000FF9385B3809585BB80E091E00E94AE00EF
:1001D00080E891EC9DBD8CBDFF91EF91BF91AF91F7
:1001E0009F918F917F916F915F914F913F912F914F
:0E01F0000F900FBE0F901F901895F894FFCF40
:0401FE0062636400D4
:00000001FF
