:100000000C9446000C9450000C9450000C9450003A
:100010000C9450000C9450000C9450000C94500020
:100020000C9450000C9450000C9450000C94500010
:100030000C9465000C9450000C9450000C945000EB
:100040000C9450000C9450000C9450000C945000F0
:100050000C9450000C9450000C9450000C945000E0
:100060000C9450000C9450000C9450000C945000D0
:100070000C9450000C9450000C9450000C945000C0
:100080000C9450000C9450000C94500011241FBE8E
:10009000CFEFD0E1DEBFCDBF0E9460000C947400B2
:1000A0000C940000789487B7806187BF1DBC1CBC8E
:1000B00088E09DE39BBD8ABD8EB58D608EBD0895A1
:1000C0008FEF84BB0E945200FFCF1F920F920FB69A
:1000D0000F9211248F9385B3809585BB8F910F90DC
:0C00E0000FBE0F901F901895F894FFCFF2
:00000001FF
