S01700004763634170706C69636174696F6E312E737265635B
S11300000C9446000C9450000C9450000C94500036
S11300100C9450000C9450000C9450000C9450001C
S11300200C9450000C9450000C9450000C9450000C
S11300300C9450000C9450000C9450000C945000FC
S11300400C9450000C9450000C9450000C945000EC
S11300500C9450000C945F000C9450000C945000CD
S11300600C9450000C9450000C9450000C945000CC
S11300700C9450000C9450000C9450000C945000BC
S11300800C9450000C9450000C94500011241FBE8A
S1130090CFEFD0E1DEBFCDBF0E945A000C947100B7
S11300A00C9400003E9A789486B1876886B9369A93
S11300B0339A08958FEF84BB0E945200FFCF1F92A2
S11300C00F920FB60F9211248F939F9384B195B121
S11300D085BB369A9F918F910F900FBE0F901F9002
S10900E01895F894FFCF0F
S9030000FC
