S0150000756172745F70726163746963652E73726563A9
S11300000C9446000C9458000C9458000C9458001E
S11300100C9458000C9458000C9458000C945800FC
S11300200C94F1000C9458000C9458000C94580053
S11300300C9458000C9458000C9458000C945800DC
S11300400C9458000C9458000C9458000C945800CC
S11300500C9458000C9458000C9458000C945800BC
S11300600C9458000C9458000C9458000C945800AC
S11300700C9458000C9458000C9458000C9458009C
S11300800C9458000C9458000C94580011241FBE72
S1130090CFEFD0E1DEBFCDBF21E0A0E0B1E001C0F1
S11300A01D92AA30B207E1F70E94D5000C941B01FF
S11300B00C9400001092980087E680939900EAE976
S11300C0F0E08081886180830895CF93DF93DC0121
S11300D09C01265F3F4FEBE9F0E0CCE9D0E0908152
S11300E09923ECF788818D9395B3909595BBA217CE
S11300F0B307A9F7DF91CF91089512B88FEF83B9B1
S113010080EC89BF78940895DA9A8FE59AEE019786
S1130110F1F700C00000DA988FE19EE40197F1F74F
S113012000C000000895CF93C82F807F8BBB0E942E
S11301308400C295C07FCBBB0E948400CF910895F8
S1130140CF93C82F807F81608BBB0E94840020E105
S1130150C29FC001112481608BBB0E948400CF9197
S113016008952FEF89EF90E0215080409040E1F70F
S113017000C0000085EF8ABB82E090E00E949300FB
S113018088E290E00E94930081E090E00E94930056
S11301908FE090E00E94930086E090E00E9493003C
S11301A080E890E00E94930008958FEF84BB0E9442
S11301B0B1000E945A000E947D0080E091E00E94FC
S11301C06500FFCFCF93DF93EC018881882331F062
S11301D021960E94A00089918111FBCFDF91CF91DC
S11301E008951F920F920FB60F9211242F933F93ED
S11301F04F935F936F937F938F939F93AF93BF932B
S1130200EF93FF93F89480EF85BB80E091E00E9428
S1130210E2007894FF91EF91BF91AF919F918F91FC
S11302207F916F915F914F913F912F910F900FBEEE
S10D02300F901F901895F894FFCF6B
S9030000FC
