S00C0000554152542E73726563DC
S11300000C9446000C9450000C9450000C94500036
S11300100C9450000C9450000C9450000C9450001C
S11300200C9450000C9450000C9450000C9450000C
S11300300C9450000C9450000C9450000C945000FC
S11300400C9450000C9450000C9450000C945000EC
S11300500C9450000C9450000C9450000C945000DC
S11300600C9450000C9450000C9450000C945000CC
S11300700C9450000C9450000C9450000C945000BC
S11300800C9450000C9450000C94500011241FBE8A
S1130090CFEFD0E1DEBFCDBF0E94C4000C94D000EE
S11300A00C940000DA9A8FE59AEE0197F1F700C0FC
S11300B00000DA988FE19EE40197F1F700C0000098
S11300C00895CF93C82F807F8BBB0E945200C295A6
S11300D0C07FCBBB0E945200CF910895CF93C82F0D
S11300E0807F81608BBB0E94520020E1C29FC001CF
S11300F0112481608BBB0E945200CF9108952FEF91
S113010089EF90E0215080409040E1F700C000006A
S113011085EF8ABB82E090E00E94610088E290E073
S11301200E94610081E090E00E9461008FE090E015
S11301300E94610086E090E00E94610080E890E007
S11301400E94610008951092980080939900EAE952
S1130150F0E0808188618083EDE9F0E08081866051
S113016080830895EBE9F0E0908195FFFDCF8093C3
S11301709C000895EBE9F0E080818823ECF78091FE
S11301809C000E946E0008950E947F0087E690E024
S11301900E94A30082E60E94B2000E94BA00FACF35
S10701A0F894FFCFFD
S9030000FC
